:100000000C94E7000C940F010C940F010C940F0159
:100010000C940F010C940F010C940F010C940F0120
:100020000C940F010C940F010C940F010C94D90C3B
:100030000C94BF100C940F010C940F010C940F0141
:100040000C9418140C940F010C948E150C940F0141
:100050000C940F010C940F010C940F010C940F01E0
:100060000C940F010C940F01746F6F206D616E7909
:10007000206F70656E2066696C6573006261642034
:10008000696E707574005941414B00594545454BA7
:100090000053616D706C65207261746520746F6FC0
:1000A0002068696768210000436F6D707265737323
:1000B000696F6E206E6F7420737570706F727465E7
:1000C00064006661696C656420746F2067657420E4
:1000D0006E657720636C7573746572002021212131
:1000E0002000203F3F3F2000204E6F74206120768B
:1000F000616C6964205741560020436F756C646ED3
:100100002774206F70656E2066696C650046696CA7
:10011000657320666F756E643A0046696C6573207E
:10012000666F756E643A00436F756C646E27742059
:100130006F70656E2064697200436F756C646E2722
:1001400074206F70656E2066696C65737973004EFC
:100150006F20706172746974696F6E2100436172FF
:100160006420696E69742E206661696C6564210083
:1001700000000000240027002A00000000002500E5
:1001800028002B00000000002300260029000404A2
:10019000040404040404020202020202030303032F
:1001A000030301020408102040800102040810200B
:1001B00001020408102000000007000201000003F3
:1001C0000406000000000000000019111F17112490
:1001D0001FBECFEFD8E0DEBFCDBF11E0A0E0B1E0A1
:1001E000E8E9F2E302C005900D92AE37B107D9F706
:1001F00014E0AEE7B1E001C01D92AD3DB107E1F7FB
:1002000011E0CEECD1E004C02297FE010E94461915
:10021000CA3CD107C9F70E9411140C944A190C94D6
:100220000000FB01DC018D91019080190110D9F3D0
:10023000990B0895FB01DC014150504030F08D9145
:100240000190801919F40020B9F7881B990B0895C3
:10025000FB01DC014150504048F001900D9200201C
:10026000C9F701C01D9241505040E0F7089508952C
:10027000CB010E944E030895FC01848195810E9468
:1002800097040895EF92FF920F931F93CF93DF93FC
:10029000EB018A0179010BC0C701B8010E9411016D
:1002A000009729F4CE010E94970481E006C0CE0198
:1002B000B7010E94A004882379F7DF91CF911F91A5
:1002C0000F91FF90EF900895EF92FF920F931F937D
:1002D000DF93CF93CDB7DEB768970FB6F894DEBF44
:1002E0000FBECDBF8C017E010894E11CF11C97016B
:1002F0000E944201882319F420E030E005C0C801C3
:10030000B7010E9476089C01C90168960FB6F8945F
:10031000DEBF0FBECDBFCF91DF911F910F91FF9038
:10032000EF900895FC01AB01648175818281938116
:100330000E9464010895EF92FF920F931F93DF9341
:10034000CF93CDB7DEB768970FB6F894DEBF0FBE78
:10035000CDBF8B01FC01848195817E010894E11C55
:10036000F11CB7010E94A004882349F0C801B7011D
:100370004CE050E00E942801F801148681E0689664
:100380000FB6F894DEBF0FBECDBFCF91DF911F91A6
:100390000F91FF90EF900895EF92FF920F931F93AC
:1003A000DF93CF93CDB7DEB768970FB6F894DEBF73
:1003B0000FBECDBF8C01FC01828193817E01089428
:1003C000E11CF11CB7010E944005F8018281938174
:1003D000B7010E942707F8019583848320E0892BC9
:1003E00009F021E0822F68960FB6F894DEBF0FBEA9
:1003F000CDBFCF91DF911F910F91FF90EF900895A6
:100400000F931F938C01FC01808191810E94510503
:10041000F8019383828320E0892B09F021E0822F69
:100420001F910F9108950F93CF93DF93EC018EE30B
:100430009AE068EF7AE040E050E020E030E000E051
:100440000E94B40899838883892B69F48EE39AE02B
:1004500068EF7AE040E050E020E030E00FEF0E94EB
:10046000B4089983888320E088819981892B09F0D9
:1004700021E0822FDF91CF910F9108950E94E6092C
:100480000895DC018C91853E39F1882329F1F90129
:1004900020813181828193812817390799F444831F
:1004A0005583668377831B968C911B978F3011F051
:1004B00080E205C08C918295880F807E805E808767
:1004C00080E008951B968C918F3031F02F5F3F4F65
:1004D0003183208381E0089581E008950F931F9375
:1004E000CF93DF938C01FC018081853E09F48CC0A1
:1004F000882309F489C0E9018C899D89AE89BF8967
:100500000097A105B10521F44C8B5D8B6E8B7F8B21
:10051000209709F479C00115110509F475C0F80197
:100520008081882309F470C083858F3011F481E0C5
:100530006CC0A801D80180E090E0282F3C913032B7
:1005400051F0FE01E80FF91F30832F5F01961196DD
:100550008830910591F78881853011F485EE888384
:10056000F80180858032B1F0FE01E20FF11D8EE2CC
:100570008083822F8F5F2C5FFA019085903249F043
:10058000FE01E80FF11D90838F5F4F5F5F4F821771
:1005900099F7282FFE01E20FF11D1082F8018385E3
:1005A0008D87938D80E0228D30E0822B932B9F8767
:1005B0008E87258D30E040E050E0542F432F322FBE
:1005C0002227868D90E0A0E0B0E0DC019927882703
:1005D000282B392B4A2B5B2B848D90E0A0E0B0E0D8
:1005E000282B392B4A2B5B2B878D90E0A0E0B0E0C5
:1005F000B82FAA2799278827282B392B4A2B5B2B22
:10060000288B398B4A8B5B8B80E0DF91CF911F91D8
:100610000F910895DF93CF9300D0CDB7DEB7DC0103
:100620000097A1F16230710588F1ED91FC9111976D
:10063000660F771F80E090E016962D913D914D91C9
:100640005C911997620F731F841F951F0190F081B1
:10065000E02DAE014F5F5F4F22E030E00995882327
:10066000A9F09A8180E0298130E0282B392B2115CF
:10067000310571F08FEF273F380741F0C9014096EF
:10068000079720F08FEF283F380710F020E030E088
:10069000C9010F900F90CF91DF910895FC01009751
:1006A00011F01182108208952F923F924F925F9223
:1006B0006F927F928F929F92AF92BF92CF92DF9272
:1006C000EF92FF920F931F93DF93CF93CDB7DEB7D7
:1006D0002C970FB6F894DEBF0FBECDBF3C017887D4
:1006E0006F835A874987009709F402C1672B09F481
:1006F000FFC0452B09F4FCC0DC015A96AD90BD90BB
:10070000CD90DC905D9752962D913D914D915C91ED
:100710005597E985FA85CF01A0E0B0E08A0D9B1DD1
:10072000AC1DBD1D281739074A075B0740F4B90106
:100730006A197B097A876987672B09F4DCC0D301C2
:10074000ED91FC911197208931893A8329835E9636
:100750006D917C915F977C876B87C901A0E0B0E0C9
:100760008B839C83AD83BE83672BE1F5F301008807
:10077000F189E02DFC87EB87EF2B39F4A114B1044C
:10078000C104D10409F4B7C0B3C0A114B104C104B9
:10079000D10441F1860175012B803C804D805E8043
:1007A0005094409430942094211C311C411C511CC5
:1007B00010C0D3018D919C916B857C850E940A03AA
:1007C0009C878B87892B09F493C0E20CF31C041DD2
:1007D000151D6B817C818D819E81E616F7060807C9
:1007E000190738F7C601B5012B813C814D815E8127
:1007F0000E9407192B0189849A84D301ED91FC9101
:10080000A980BA80A418B5088A149B0408F454017E
:10081000C080D180720100E010E086899789A08DA8
:10082000B18DE80EF91E0A1F1B1FEB85FC85329760
:10083000BF0180E090E03296FC87EB872B813C8102
:100840004D815E810E94C118E60EF71E081F191F18
:10085000D601ED91FC91C801B7014F8158859501F2
:100860000995882361F18A189B08C501A0E0B0E0D2
:10087000F301228D338D448D558D280F391F4A1F6A
:100880005B1FD3015A962D933D934D935C935D97D7
:10089000C501840D951DE981FA818E179F07B0F07F
:1008A0008D919C916B857C850E940A039C878B8728
:1008B000892B51F4D3015F961C921E925E97498555
:1008C0005A854819590919C0442455242B853C855B
:1008D000F301378F268F8114910439F06F81788569
:1008E0006A0D7B1D78876F8388CF49855A8505C03F
:1008F0004FEF5FEF02C040E050E0CA012C960FB608
:10090000F894DEBF0FBECDBFCF91DF911F910F9145
:10091000FF90EF90DF90CF90BF90AF909F908F901F
:100920007F906F905F904F903F902F900895FC01C3
:10093000009711F480E00895138E128E81E00895DF
:100940004F925F926F927F928F929F92AF92BF92DF
:10095000CF92DF92EF92FF920F931F93DF93CF938B
:10096000CDB7DEB7A9970FB6F894DEBF0FBECDBFE7
:100970005C014B01009709F44DC06115710509F444
:1009800049C0FC0180899189892B09F043C0A0816D
:10099000B181228D338D1097D1F1ED91FC9111979A
:1009A000628073806E010894C11CD11C89E0F6013D
:1009B00011928A95E9F73C832B8352966D917D9134
:1009C0008D919C9155971AE0412E512C4C0E5D1E35
:1009D00056960D911C915797061B170BA20120E20A
:1009E00030E0F1E4EF2EF2E0FF2EF30109958823C9
:1009F00071F02D813E814F815885211531054105CA
:100A0000510529F01FC0F4018081882389F5F50183
:100A1000138E128E80E0A9960FB6F894DEBF0FBE3B
:100A2000CDBFCF91DF911F910F91FF90EF90DF909D
:100A3000CF90BF90AF909F908F907F906F905F907E
:100A40004F90089588E1F40111928A95E9F709859C
:100A5000CA01B901A20120E230E010E0EEE6EE2E7C
:100A6000E2E0FE2E6401F3010995882381F2CBCFE9
:100A7000F501828D938D0196938F828F81E0CBCF8C
:100A8000FB01892B61F06115710549F088E1DB01FB
:100A90001D928A95E9F780E1858781E0089580E0DD
:100AA00008952F923F924F925F926F927F928F9212
:100AB0009F92AF92BF92CF92DF92EF92FF920F93ED
:100AC0001F93DF93CF93CDB7DEB7E0970FB6F894BF
:100AD000DEBF0FBECDBF6C01009709F490C1ABC162
:100AE000E6EDF1E08AE1DF011D928A95E9F7D09207
:100AF000D701C092D601D60119962D913D914D9105
:100B00005C911C9719E0220F331F441F551F1A9543
:100B1000D1F72AA33BA34CA35DA3CA01B901655F2A
:100B20007F4F8F4F9F4FED91FC91AE014F5F5F4F15
:100B300029E130E00995882309F484C1A9804A801D
:100B4000BB81BEA30C81FD801E813F8158846984D6
:100B50007A849D8580E02C85E22FF0E0E82BF92B4C
:100B60008E883F88288DE98C309709F46BC1432D1E
:100B700050E060E070E0962F852F742F662769A7FC
:100B80007AA78BA79CA7822F90E0A0E0B0E0BC01E1
:100B90005527442789A59AA5ABA5BCA5842B952BE1
:100BA000A62BB72B482D50E060E070E0842B952BEE
:100BB000A62BB72B89A79AA7ABA7BCA78E2D90E031
:100BC000A0E0B0E0782F66275527442789A59AA58D
:100BD000ABA5BCA5842B952BA62BB72B89A79AA7D1
:100BE000ABA7BCA70097A105B10589F4972D80E0BC
:100BF000662D70E0682B792B6115710509F422C10F
:100C0000CB01A0E0B0E089A79AA7ABA7BCA7942D21
:100C100080E02A2C3324282A392A952D80E0A32F1E
:100C2000B0E0A82BB92BB8A7AFA39F2D80E0202F51
:100C300030E0822B932B9C0140E050E02A8F3B8FC9
:100C40004C8F5D8FBF0180E090E0212F30E040E0CD
:100C500050E00E94C1186E8F7F8F88A399A3E9A4EA
:100C6000FAA40BA51CA54A8D5B8D6C8D7D8DE41AB5
:100C7000F50A060B170B6E8D7F8D88A199A1E61AD8
:100C8000F70A080B190BC10101972FA138A545E000
:100C9000220F331F4A95E1F7820F931FB1010E9483
:100CA000E01880E090E0E61AF70A080B190B7EA125
:100CB000272F30E040E050E0C801B7010E9407193B
:100CC00029013A01D301C201855F9F40A040B04095
:100CD0008050904FA040B04008F0B4C086E0D601EC
:100CE00018968C9398ED892E91E0992E88E1F40165
:100CF00011928A95E9F75101CC24DD2469A57AA5E2
:100D00008BA59CA5A60195010E94C1186093D801EE
:100D10007093D9018093DA019093DB01C601B5018C
:100D20002A8D3B8D4C8D5D8D0E94C1187B018C01FD
:100D30002AA13BA14CA15DA1E20EF31E041F151FC9
:100D4000E092DC01F092DD010093DE011093DF01FF
:100D500042E050E060E070E0440E551E661E771ED3
:100D6000440C551C661C771C4092E0015092E10136
:100D70006092E2017092E3013092E5012092E40179
:100D80005EA1852F90E0BC01269EC001279E900D9C
:100D9000369E900D11249093E7018093E6016E8DAD
:100DA0007F8D88A199A1A60195010E94C1186E0DA1
:100DB0007F1D801F911F6093E8017093E90180936C
:100DC000EA019093EB01AFA1B8A59D0140E050E08E
:100DD00005E0220F331F441F551F0A95D1F7620FFC
:100DE000731F841F951F6093EC017093ED01809336
:100DF000EE019093EF0194012250304002C020E0B8
:100E000030E0C901E0960FB6F894DEBF0FBECDBF4B
:100E1000CF91DF911F910F91FF90EF90DF90CF90D6
:100E2000BF90AF909F908F907F906F905F904F900A
:100E30003F902F9008958091D6019091D701892BF2
:100E4000F1F64ECE1092D7011092D601D8CFCF93A3
:100E5000DF939C01DB01009729F16115710511F108
:100E60001D968C911D9784FF1DC080917E019091ED
:100E70007F01892B19F4EEE7F1E008C080919A0117
:100E800090919B01892B71F4EAE9F1E0EF01229640
:100E900088E10D9009928150E1F731832083138E10
:100EA000128E02C0E0E0F0E0CF01DF91CF91089513
:100EB0002F923F924F925F926F927F928F929F926A
:100EC000AF92BF92CF92DF92EF92FF920F931F9358
:100ED000DF93CF93CDB7DEB72A970FB6F894DEBF76
:100EE0000FBECDBF4C017C836B831A01009709F4C0
:100EF000DEC0672B09F4DBC04115510509F4D7C0EA
:100F0000DC015A96ED90FD900D911C915D9780E06B
:100F10009EEFAFEFBFEFE822F9220A231B23D40193
:100F20005A96ED92FD920D931C935D9752962D91DA
:100F30003D914D915C9155972E153F054007510706
:100F400008F4B8C0C101A0E0B0E08E0D9F1DA01F45
:100F5000B11F281739074A075B0728F419012E1813
:100F60003F0809F4A7C0D401ED91FC9111972089A5
:100F700031893A8329835E968D919C915F979A87F8
:100F80008987290166247724892BD9F550960D90FD
:100F9000BC91A02DBA87A987AB2B39F4E114F104D9
:100FA0000105110509F486C082C0E114F1040105B0
:100FB000110539F15701680188279927DC01841947
:100FC0009509A609B7098D839E83AF83B88714C09E
:100FD000D4018D919C9169857A850E940A039A8734
:100FE0008987892B09F463C08D819E81AF81B88583
:100FF000A80EB91ECA1EDB1EA414B504C604D7046D
:1010000038F7510191E0291692E0390618F0A12C29
:1010100082E0B82EC801B701A30192010E9407190E
:101020007B0129813A81261B370B65012A153B0577
:1010300008F4690100E010E0D401ED91FC9186898B
:101040009789A08DB18DE80EF91E0A1F1B1FE98537
:10105000FA853297BF0180E090E03296FA87E987FF
:10106000A30192010E94C118E60EF71E081F191F66
:10107000C801B7014B815C8196010E944C0C892B01
:10108000C9F0960140E050E0F401828D938DA48D6B
:10109000B58D820F931FA41FB51F828F938FA48FCE
:1010A000B58F29853A85378F268FA50105C04FEF6B
:1010B0005FEF02C040E050E0CA012A960FB6F894F4
:1010C000DEBF0FBECDBFCF91DF911F910F91FF907B
:1010D000EF90DF90CF90BF90AF909F908F907F90D8
:1010E0006F905F904F903F902F900895CF93DF9334
:1010F0009C01FB01009731F06115710519F08585A0
:1011000084FF2BC08CE790E002C088E690E060E0AE
:101110000E94B50C20E030E0C901DF91CF91089525
:10112000C8EBD1E0DF0188E10D9009928150E1F731
:101130003093B7012093B6011092D0011092D101E3
:101140001092D2011092D301868597859093D50194
:101150008093D40126EB31E0DFCF8091B6019091EE
:10116000B701892B91F6DCCF8F929F92AF92BF92FD
:10117000CF92DF92EF92FF920F93DF93CF93CDB791
:10118000DEB760970FB6F894DEBF0FBECDBF7C010F
:101190006B015A014901009709F493C0611571056B
:1011A00009F48FC004300CF08CC007FD1DC0602F07
:1011B000772767FD7095E4E0660F771FEA95E1F702
:1011C00062547E4F882777FD8095982FAE014F5F40
:1011D0005F4F20E130E0F7010995882309F471C0E1
:1011E0008D81882309F46DC08091F801882309F06E
:1011F00068C07CC08D818093F8012A8530E040E092
:1012000050E0542F432F322F22278B8590E0A0E00F
:10121000B0E0DC0199278827282B392B4A2B5B2B40
:10122000898590E0A0E0B0E0282B392B4A2B5B2B7E
:101230008C8590E0A0E0B0E0B82FAA2799278827F6
:10124000282B392B4A2B5B2B2093F9013093FA0181
:101250004093FB015093FC012E8530E040E050E0CC
:10126000542F432F322F22278F8590E0A0E0B0E04B
:10127000DC0199278827282B392B4A2B5B2B8D855E
:1012800090E0A0E0B0E0282B392B4A2B5B2B88891B
:1012900090E0A0E0B0E0B82FAA2799278827282B54
:1012A000392B4A2B5B2B2093FD013093FE01409399
:1012B000FF015093000203C08FEF8093F8019F015C
:1012C00002C020E030E0C90160960FB6F894DEBF9E
:1012D0000FBECDBFCF91DF910F91FF90EF90DF90C8
:1012E000CF90BF90AF909F908F900895E0EFF1E086
:1012F00081E1DF011D928A95E9F7F092F101E09218
:10130000F001D092F301C092F201B092F501A092E7
:10131000F4019092F7018092F60107FF6BCFCCCFDA
:10132000282F8FEF8EBD0DB407FEFDCF8DB58F77C3
:101330008DBD8EB5822F80648EBD0DB407FEFDCFAE
:101340008DB58F778DBD872F9927AA27BB278EBD97
:101350000DB407FEFDCF8DB58F778DBDCB01AA27CC
:10136000BB278EBD0DB407FEFDCF8DB58F778DBD2C
:10137000BB27A72F962F852F8EBD0DB407FEFDCF5F
:101380008DB58F778DBD4EBD0DB407FEFDCF8DB5EC
:101390008F778DBD222311F08FEF01C085E98EBDBF
:1013A0000DB407FEFDCF8DB58F778DBD90E02FEF8B
:1013B0002EBD0DB407FEFDCF8DB58F778DBD8EB5DB
:1013C0008F3F19F49F5F9A3099F70895CF93DF9379
:1013D00000000000239A259A229A24982A9A83E5ED
:1013E0008CBD8DB58E7F8DBD20E030E09FEF9EBD22
:1013F0000DB407FEFDCF8DB58F778DBD8EB52F5FF8
:101400003F4F2A30310599F72A98C0E0D0E080E0BC
:1014100040E050E060E070E00E949009813031F0DF
:1014200081E0CF3FD807E1F02196F1CFC0E0D0E0D6
:1014300081E040E050E060E070E00E94900980FFB1
:1014400006C08FE7CF3FD80759F02196F1CF80E152
:1014500040E052E060E070E00E949009882319F0BB
:101460002A9A80E008C02A9A8CB58C7F8CBD8DB5F5
:1014700081608DBD81E0DF91CF9108958F929F9221
:10148000AF92BF92DF92EF92FF920F931F93CF9391
:10149000DF937B018C015A01E901DD24DA94812C70
:1014A00042E0942E5EC02A98B801A70140705E7F8A
:1014B00081E10E949009882319F02A9A80E055C0A2
:1014C000DEBC0DB407FEFDCF8DB58F778DBD8EB51B
:1014D0008E3FB1F7A7015170B401641B750BC6179D
:1014E000D70708F4BE01FB01E40FF51F20E030E050
:1014F000DEBC0DB407FEFDCF8DB58F778DBD8EB5EB
:101500002417350730F02E173F0718F4D5018D93B7
:101510005D012F5F3F4FB2E020303B0749F7DEBC53
:101520000DB407FEFDCF8DB58F778DBD8EB5DEBCBA
:101530000DB407FEFDCF8DB58F778DBD8EB52A9A80
:10154000DEBC0DB407FEFDCF8DB58F778DBD8EB59A
:10155000C61BD70BCB01A0E0B0E0E80EF91E0A1FB6
:101560001B1F209709F09FCF81E0DF91CF911F9142
:101570000F91FF90EF90DF90BF90AF909F908F9072
:10158000089520914B0130914C019FEF0AC09EBD00
:101590000DB407FEFDCF8DB58F778DBD8EB52F5F56
:1015A0003F4F82E02030380790F38FEF8EBD0DB4AF
:1015B00007FEFDCF8DB58F778DBD8EB58FEF8EBDBC
:1015C0000DB407FEFDCF8DB58F778DBD8EB52A9AF0
:1015D0008FEF8EBD0DB407FEFDCF8DB58F778DBD1E
:1015E0008EB58FEF9FEF90934C0180934B01089540
:1015F0002F923F924F925F926F927F928F929F9223
:10160000AF92BF92CF92DF92EF92FF920F931F9310
:10161000DF93CF93CDB7DEB72C970FB6F894DEBF2C
:101620000FBECDBF4B015C011A013C872B872801FF
:10163000FE82ED82D886CF824115510509F4DCC0C7
:101640002115310509F4D8C00217130708F4D4C0D6
:10165000EF2809F4D1C02A98309521953F4F3A8759
:10166000298784011170D501C40180709E7F898310
:101670009A83AB83BC8381E149815A816B817C81F0
:101680000E949009882311F02A9AB6C09FEF9EBD50
:101690000DB407FEFDCF8DB58F778DBD8EB58E3F16
:1016A000A9F720E030E00BC0AFEFAEBD0DB407FEF0
:1016B000FDCF8DB58F778DBD8EB52F5F3F4F201736
:1016C000310790F3E12C52E0F52EE01AF10A3701D0
:1016D000EB85FC856E1A7F0A6201CE1ADF0A00E0F4
:1016E00012E00E191F092B853C85E216F30648F11E
:1016F0004216530630F1F10120E030E00CC08FEFCC
:101700008EBD0DB407FEFDCF8DB58F778DBD8EB527
:1017100081932F5F3F4FAB85BC852A173B0778F33A
:10172000A80160E070E0480D591D6A1D7B1DC101D4
:101730002F813885ED81FE810995882321F491E080
:1017400026C090E024C02B853C85E21AF30A421A99
:10175000530A61147104A9F389859A85680E791E6C
:10176000C80ED91E020F131FC9018C0D9D1D892B98
:1017700009F0B9CFE6CFAFEFAEBD0DB407FEFDCF98
:101780008DB58F778DBD8EB50894E108F108E11411
:10179000F10489F7BFEFBEBD0DB407FEFDCF8DB5D7
:1017A0008F778DBD8EB5EFEFEEBD0DB407FEFDCF8B
:1017B0008DB58F778DBD8EB52B853C854216530632
:1017C00078F0992369F489809A80AB80BC8080E0AE
:1017D00092E0A0E0B0E0880E991EAA1EBB1E41CF89
:1017E0002A9A8FEF8EBD0DB407FEFDCF8DB58F7792
:1017F0008DBD8EB581E001C080E02C960FB6F894C7
:10180000DEBF0FBECDBFCF91DF911F910F91FF9033
:10181000EF90DF90CF90BF90AF909F908F907F9090
:101820006F905F904F903F902F900895FC01209112
:101830004B0130914C014FEF2F3F340731F486E8D4
:1018400090E060E00E94B50CFFCFCB01820F931FA8
:101850008150924020F060E072E0621B730B20E048
:1018600030E04FEF14C04EBD0DB407FEFDCF8DB577
:101870008F778DBD8EB5819380914B0190914C01F6
:10188000019690934C0180934B012F5F3F4F261799
:10189000370748F3CB010895CF92DF92EF92FF9282
:1018A0000F931F93CF93DF937B018C016A0180918B
:1018B0004B0190914C018F5F9F4F31F08BE890E08E
:1018C00060E00E94B50CFFCFE90182E021303807CB
:1018D00010F0C0E0D2E02A9880E09EEFAFEFBFEFBB
:1018E000E822F9220A231B2381E1B801A7010E9403
:1018F0009009882321F02A9AC0E0D0E02CC09FEF05
:101900009EBD0DB407FEFDCF8DB58F778DBD8EB515
:101910008E3FB1F710924C0110924B012FEF14C083
:101920002EBD0DB407FEFDCF8DB58F778DBD8EB565
:10193000D6018D936D0180914B0190914C010196E0
:1019400090934C0180934B0180914B0190914C01FD
:101950008C179D0728F3CE01DF91CF911F910F9136
:10196000FF90EF90DF90CF9008950F931F93CF9348
:10197000DF93EC01062F10E005C08AEC94E00E9492
:1019800090171F5FFE01E10FF11D64916623A9F717
:10199000002351F08AEC94E06AE00E9498178AECE8
:1019A00094E06DE00E949817DF91CF911F910F9105
:1019B00008951F920F920FB60F9211242F933F9309
:1019C0004F938F939F93AF93BF93EF93FF932F9377
:1019D0003F934F935F936F937F93AF93BF93E09148
:1019E0000102F0910202309709F4B0C0209107047F
:1019F000309108048091090490910A04281739074E
:101A000009F047C080910C048823B9F18091030448
:101A10009091040423E033E042E08330940749F4DA
:101A200030930404209303049093060480930504E8
:101A30000AC083E092E090930404809303043093FF
:101A4000060420930504809103049091040490936C
:101A500008048093070480509F4F90930A0480935A
:101A6000090410920C0480910B04882391F4809156
:101A70006F00846080936F000CC081899289A38974
:101A8000B4890196A11DB11D818B928BA38BB48B60
:101A90005DC05A985C985B9A5B985C9A5B9A5B987D
:101AA0005B9A5B985B9A5B988781803119F5E0912E
:101AB0000704F09108048181805890E087FF02C0FC
:101AC0005C9A01C05C985B9A5B989F5F983011F0BC
:101AD000880FF4CF908180E097FF02C05C9A01C02C
:101AE0005C985B9A5B988F5F843011F0990FF4CF0C
:101AF00032961DC08830F9F4E0910704F091080493
:101B0000908180E097FF02C05C9A01C05C985B9A6C
:101B10005B988F5F883011F0990FF4CF5B9A5B98D8
:101B20005B9A5B985B9A5B985B9A5B983196F093B3
:101B30000804E09307045A9A5D985D9ABF91AF91AB
:101B40007F916F915F914F913F912F91FF91EF9115
:101B5000BF91AF919F918F914F913F912F910F9096
:101B60000FBE0F901F9018950895CF93DF93EC014F
:101B700080916F008D7F80936F008D89882319F08D
:101B80000E94C10A1D8AE0910102F0910202108AAE
:101B90001092020210920102DF91CF910895CF922C
:101BA000DF92EF92FF920F931F93DF93CF93CDB706
:101BB000DEB728970FB6F894DEBF0FBECDBF8C01FD
:101BC0006B01CB017E010894E11CF11CB70144E0DC
:101BD00050E00E945403049709F0F0C0C70160E090
:101BE00071E044E050E00E941A01009709F0E6C05D
:101BF000F5C0CE01059665E071E044E050E00E943A
:101C00001A01009709F0DAC0F2C0C7016AE071E07A
:101C100044E050E00E941A01009709F0CFC0F0C0E4
:101C2000542F432F322F22278081280F311D411D31
:101C3000511D3197EC17FD0799F7F8012487358777
:101C400046875787203131054105510509F0B6C057
:101C5000C601BE016F5F7F4F48E050E00E94540311
:101C6000089709F0ABC08A8190E0A0E0B0E0BA2FFD
:101C7000A92F982F88272981820F911DA11DB11DA1
:101C80000197A105B10519F088EA90E083C08C8125
:101C900090E0A0E0B0E02227382F492F5A2F8B8107
:101CA000280F311D411D511D2330310541055105BE
:101CB00008F084C0F8012083FE013896BE016C5FF5
:101CC0007F4F542F432F322F22278081280F311D21
:101CD000411D511D3197E617F70799F7F801218348
:101CE000328343835483C601BE016F5F7F4F48E058
:101CF00050E00E945403089709F060C08E8190E084
:101D0000A0E0B0E0BA2FA92F982F88272D81820F4D
:101D1000911DA11DB11DF80196838583888590E0F2
:101D2000A0E0B0E02227382F492F5A2F8F81280FAB
:101D3000311D411D511D213131054105510508F06D
:101D40003DC0278381819281A381B4818332F6E5EE
:101D50009F07F0E0AF07F0E0BF0718F0293040F030
:101D60000CC081589E43A040B04050F0293040F054
:101D7000FF24F8018081823020F0FF24F39401C019
:101D8000FF2487EA90E061E00E94B50CFF2031F06B
:101D900081E990E061E00E94B50C10C0F801108666
:101DA000118612861386D08EC78A118A128A138AE8
:101DB000148A108A158A168A81E001C080E028966C
:101DC0000FB6F894DEBF0FBECDBFCF91DF911F914C
:101DD0000F91FF90EF90DF90CF900895C601B7016B
:101DE00048E050E00E945403089741F702CFC60133
:101DF000B70144E050E00E9454030497F9F605CF80
:101E0000F8011486158616861786C601B70144E0C8
:101E100050E00E945403049789F6F8012485358523
:101E200046855785FE013496FBCEAF92BF92CF9286
:101E3000DF92EF92FF920F931F93DF93CF9300D027
:101E400000D00F92CDB7DEB76C015B01F42EE52E0A
:101E5000FC0180859185A285B3850097A105B10518
:101E6000D1F58789908D8E010F5F1F4FB80144E037
:101E700050E00E945403049709F0F5C01D82D6017A
:101E800057968D919C915897B80144E050E00E947C
:101E90005403049709F0E7C0F601108611861286F4
:101EA0001386FE01349620E030E040E050E0542FED
:101EB000432F322F22278081280F311D411D511DB4
:101EC0003197EC17FD0799F7D60118962D933D939E
:101ED0004D935C931B978F2D9E2D9C017901B2E051
:101EE00021303B0718F0E12C72E0F72EF601208537
:101EF000318542855385C701A0E0B0E02817390736
:101F00004A075B0708F47901D6015796ED91FC91D9
:101F10005897828D938DA48DB58D9170A070B070FF
:101F20000097A105B105D1F4D60155968C9188236F
:101F3000A9F4CF01B501A7010E9458078C018E15A5
:101F40009F0541F082EE90E060E00E94B50C0E9497
:101F5000C10A8BC081E0F601858B73C0D60155960E
:101F60008C91882309F463C0C501B7010E94160C47
:101F70005C018E159F0539F08CED90E060E00E94C9
:101F8000B50C0E94C10AD6015796ED91FC91589765
:101F9000C501A0E0B0E0228D338D448D558D820FB8
:101FA000931FA41FB51F828F938FA48FB58F91703D
:101FB000A070B0700097A105B10509F041C00E9462
:101FC000C10AF601158A0789108DD801ED90FC90A1
:101FD0001197F7012089318940E050E05A966D91C0
:101FE0007D918D919C915D970E94071961157105F6
:101FF0008105910529F5D8015E966D917C915F97D9
:10200000C7010E940A03F801978F868F892BC1F4BC
:10201000D6015796ED91FC915897178E168E82EC4B
:1020200090E061E00E94B50C0FEF1FEF1EC0CF01E2
:10203000B501A7010E9454038E159F05A1F401C0AC
:102040007501970140E050E0F60180859185A285F9
:10205000B385821B930BA40BB50B80879187A28756
:10206000B387870102C000E010E0C8010F900F9015
:102070000F900F900F90CF91DF911F910F91FF90D4
:10208000EF90DF90CF90BF90AF900895CF92DF9206
:10209000EF92FF920F931F93CF93DF93EC01C980D0
:1020A000DA80EB80FC80909302028093010203E0CF
:1020B00012E01093080400930704B80142E050E0D6
:1020C0000E94150F892B09F451C08091070490914B
:1020D0000804029690930A0480930904EF89F88D0E
:1020E000828D40E051E0481B51098091010290919E
:1020F0000202B8016E5F7F4F0E94150F9C0100978E
:10210000A9F18091090490910A04820F931F909382
:102110000A0480930904809101029091020263E015
:1021200073E040E051E00E94150F81E080930C04C1
:10213000888B1092800089E08093810060E074E2D7
:1021400084EF90E0A70196010E940719309389005F
:102150002093880081E090E090938B0080938A0028
:1021600080916F00826080936F007894DF91CF91AF
:102170001F910F91FF90EF90DF90CF9008951F92E5
:102180000F920FB60F9211242F933F934F935F93AB
:102190006F937F938F939F93AF93BF93EF93FF932F
:1021A0002F933F934F935F936F937F93AF93BF931F
:1021B00080916F008B7F80936F0080910C04882347
:1021C00039F581E080930B04789460910504709157
:1021D0000604809101029091020240E051E00E94C9
:1021E000150F892B31F480910102909102020E9417
:1021F000B50DF89410920B0481E080930C04789450
:10220000BF91AF917F916F915F914F913F912F91CE
:10221000FF91EF91BF91AF919F918F917F916F91BE
:102220005F914F913F912F910F900FBE0F901F9094
:1022300018958DE094E00E94370185E194E00E94BA
:10224000B40D0895BC018DE094E00E949201BC01A0
:102250009093140480931304009739F480914D01F6
:10226000882319F089EF90E00CC085E194E00E948A
:10227000CF0D882351F480914D01882331F088EEF1
:1022800090E061E00E94B50C089585E194E00E9421
:10229000461008954F925F926F927F928F929F9215
:1022A000AF92BF92CF92DF92EF92FF920F931F9364
:1022B000DF93CF93CDB7DEB728970FB6F894DEBF84
:1022C0000FBECDBF7FE0472E71E0572E69E1662E2D
:1022D00061E0762E54E2852E51E0952E46E2A42E42
:1022E00041E0B42E7E010894E11CF11C31E0C32EC4
:1022F000D12C5A8249827C826B829E828D82B886E2
:10230000AF82E0913B04F0913C04EE0FFF1FEE0D15
:10231000FF1D648175818AEC94E00E94A017E09112
:102320003B04F0913C04EE0FFF1FEE0DFF1D80817A
:1023300091810E9422118091500160913B040E9482
:10234000F214809116049091170490932F048093B7
:102350002E0468EE73E080E090E00E946E1467C087
:102360000E942F12109236041092350480914E0173
:102370000E943F158C01809133049091340408171A
:10238000190751F00E946014609337047093380469
:102390008093390490933A040E946014209137048A
:1023A000309138044091390450913A04621B730B08
:1023B000840B950B20917001309171014091720155
:1023C00050917301261737074807590780F5109376
:1023D0003204009331040115110511F58091350483
:1023E00090913604892B19F5D0923604C0923504A9
:1023F00020E030E080913B0490913C04892B11F463
:1024000021E030E030933C0420933B048091500164
:1024100060E00E94F21485E194E00E94B50D16C0C0
:102420000130110521F41092360410923504809188
:102430002504882309F094CF80913B0490913C04BB
:10244000892B21F010923C0410923B0460911304FC
:10245000709114048DE094E00E9438014ACFEF920D
:10246000FF920F931F93CF93DF938AEC94E00E9427
:10247000C416882309F469C08AEC94E00E94D81637
:10248000809330048AEC94E068E271E00E94A01727
:102490004091300450E060E070E08AEC94E02AE083
:1024A00030E00E94B6188091300487FF2FC080581A
:1024B00080933004E2E6EE2EE1E0FE2E04E511E02A
:1024C000C0E0D0E06091300470E00C2E02C0759541
:1024D00067950A94E2F761707070F7017183608309
:1024E000F80180810E94F214F701619171917F01DE
:1024F0008AEC94E00E94891821960E5F1F4FC73026
:10250000D10501F78AEC94E00E94A81781E6809338
:10251000300480913B0490913C04892BB1F481E01C
:1025200090E090933C0480933B0485E194E00E940A
:10253000B50D60911304709114048DE094E00E9435
:10254000380181E391E00E944A11DF91CF911F9100
:102550000F91FF90EF900895CF93DF930E942F1279
:1025600080914E010E943F15EC01809133049091BF
:102570003404C817D90751F00E94601460933704DF
:10258000709338048093390490933A040E94601445
:1025900020913704309138044091390450913A0425
:1025A000621B730B840B950B2091700130917101AC
:1025B0004091720150917301261737074807590758
:1025C00060F5D0933204C093310460E0209709F4A1
:1025D00061E0809150010E94F21480913104909149
:1025E0003204892B81F48091350490913604892B33
:1025F00051F481E090E0909336048093350483E3B6
:1026000091E00E944A118091310490913204019727
:1026100021F4109236041092350481E391E00E9477
:102620004A11D0933404C0933304DF91CF910895BD
:102630000F931F93DF93CF93CDB7DEB72D970FB6D0
:10264000F894DEBF0FBECDBF8DE094E00E943C0148
:1026500080914D01882329F08DE091E061E00E9496
:10266000B50C8E010F5F1F4F8DE094E0B8010E9402
:102670009B01882379F48DE094E00E943C012D9623
:102680000FB6F894DEBF0FBECDBFCF91DF911F9183
:102690000F91089580914D01882331F38AEC94E0E5
:1026A000B8010E94BF17E0CFCF93DF938AEC94E08C
:1026B00040E855E260E070E00E94CB1580914D014A
:1026C000882331F08AEC94E060E471E00E94BF1747
:1026D0008091520161E00E94D2148091520161E028
:1026E0000E94F2148091500161E00E94D214809106
:1026F000500160E00E94F21480914E0160E00E945F
:10270000D21480914E0161E00E94F2148AEC94E0B0
:102710000E94001760914E0170914F018AEC94E085
:102720000E949118C4E5D1E0888161E00E94D21432
:10273000888161E00E94F214229681E0C236D807B7
:1027400099F764EF71E080E090E00E946E14C0E0C1
:10275000D0E0FE01EC5AFE4FDE01AE59BE4F808143
:102760006C910E94F2142296CE30D10591F780919F
:10277000520160E00E94F21482E061E00E94D214F3
:1027800083E061E00E94D21484E061E00E94D214F0
:1027900085E061E00E94D2148DE094E00E943E0248
:1027A000882339F480914D01882319F08DE591E05B
:1027B00026C08DE094E00E941302882339F48091B2
:1027C0004D01882319F08FE491E019C08DE094E069
:1027D0000E940002882339F480914D01882319F06A
:1027E00089E391E00CC08DE094E00E94CC01882345
:1027F00051F480914D01882331F087E291E061E04E
:102800000E94B50C0BC080914D01882329F08AE10C
:1028100091E061E00E94B50C0E941813DF91CF9106
:1028200008950E9498140E9454130E94AC12FDCF88
:102830001F920F920FB60F9211242F933F938F93F5
:102840009F93AF93BF938091410490914204A091D4
:102850004304B0914404309145040196A11DB11D7B
:10286000232F2D5F2D3720F02D570196A11DB11D6F
:10287000209345048093410490934204A093430421
:10288000B093440480913D0490913E04A0913F0494
:10289000B09140040196A11DB11D80933D04909319
:1028A0003E04A0933F04B0934004BF91AF919F9129
:1028B0008F913F912F910F900FBE0F901F90189501
:1028C0008FB7F89420914104309142044091430421
:1028D000509144048FBFB901CA010895EF92FF924D
:1028E0000F931F937B018C018FB7F89440914104A3
:1028F0005091420460914304709144048FBF2FB7FC
:10290000F8948091410490914204A0914304B091C5
:1029100044042FBF841B950BA60BB70BE816F906D2
:102920000A071B0760F71F910F91FF90EF90089522
:10293000789484B5826084BD84B5816084BD85B59A
:10294000826085BD85B5816085BDEEE6F0E0808161
:1029500081608083E1E8F0E0808182608083808113
:1029600081608083E0E8F0E0808181608083E1EB3A
:10297000F0E0808184608083E0EBF0E08081816022
:102980008083EAE7F0E080818460808380818260D8
:1029900080838081816080838081806880831092C1
:1029A000C1000895282F30E0C9018E559E4FFC01CB
:1029B000949122573E4FF9018491882391F0E82F9A
:1029C000F0E0EE0FFF1FE059FE4FA591B491662392
:1029D00029F48C91909589238C9308958C91892B5F
:1029E0008C930895482F50E0CA018A549E4FFC01F1
:1029F0002491CA018E559E4FFC01949142575E4F1F
:102A0000FA0134913323D1F1222331F1233021F41F
:102A1000809180008F7705C0243031F48091800050
:102A20008F7D8093800018C0213019F484B58F7792
:102A300004C0223021F484B58F7D84BD0DC02630C2
:102A400021F48091B0008F7705C0273029F4809160
:102A5000B0008F7D8093B000E32FF0E0EE0FFF1FFA
:102A6000E658FE4FA591B491662329F48C91909578
:102A700089238C9308958C91892B8C930895682FCA
:102A800070E0CB018A549E4FFC012491CB018E55FE
:102A90009E4FFC01449162577E4FFB019491992314
:102AA00019F420E030E038C0222331F1233021F442
:102AB000809180008F7705C0243031F480918000B0
:102AC0008F7D8093800018C0213019F484B58F77F2
:102AD00004C0223021F484B58F7D84BD0DC0263022
:102AE00021F48091B0008F7705C0273029F48091C0
:102AF000B0008F7D8093B000892F90E0880F991FE0
:102B00008C579E4FFC01A591B4918C9120E030E050
:102B1000842311F021E030E0C90108951F920F9243
:102B20000FB60F9211242F933F934F935F936F93A0
:102B30007F938F939F93AF93BF93EF93FF934091B6
:102B4000C600E091C604F091C704CF01019660E889
:102B500070E00E94F4189C018091C8049091C9040F
:102B60002817390739F0EA5BFB4F40833093C704DD
:102B70002093C604FF91EF91BF91AF919F918F91E8
:102B80007F916F915F914F913F912F910F900FBE69
:102B90000F901F9018955F926F927F928F929F92E5
:102BA000AF92BF92CF92DF92EF92FF920F931F935B
:102BB000CF93DF93EC013A014B01413482E4580793
:102BC0008FE0680780E078070CF07FC060E874E869
:102BD0008EE190E0A40193010E9429192150304018
:102BE00040405040CA01B90122E030E040E050E0EE
:102BF0000E94291959016A01A60195012095309575
:102C00004095509594E0220F331F441F551F9A950D
:102C1000D1F760E074E284EF90E00E942919CA01C4
:102C2000B9012FEF30E040E050E00E94C118A4014C
:102C300093010E942919C90181509F4F1816190646
:102C40001CF4522E5A9403C055245394521A60E037
:102C500079E08DE390E0A40193010E9429192150AD
:102C6000304040405040CA01B90122E030E040E02D
:102C700050E00E942919209530954095509583E0A9
:102C8000220F331F441F551F8A95D1F760E074E26D
:102C900084EF90E00E942919CA01B9012FEF30E0BA
:102CA00040E050E00E94C118A40193010E9429193C
:102CB000C90181509F4F181619061CF4822F8150AC
:102CC00002C081E0821B851500F5E885F98581E069
:102CD00090E00A8802C0880F991F0A94E2F7808367
:102CE00060E079E08DE390E0A40193010E9429194E
:102CF0002150304040405040CA01B90122E030E04C
:102D000040E050E00E94291904C0E885F98510824E
:102D10009501EC81FD813083EE81FF812083EA857E
:102D2000FB85208141E050E0CA010E8402C0880F7B
:102D3000991F0A94E2F7282B2083EA85FB852081DE
:102D4000CA010F8402C0880F991F0A94E2F7282B4A
:102D50002083EA85FB858081088802C0440F551FC7
:102D60000A94E2F7842B8083DF91CF911F910F911A
:102D7000FF90EF90DF90CF90BF90AF909F908F909B
:102D80007F906F905F900895DC011296ED91FC9119
:102D90001397E058FF4F8191919180589F4F208168
:102DA0003181821B930B60E870E00E94F418089553
:102DB000CF93DF93DC011296ED91FC911397EF0115
:102DC000CE57DF4F48815981E058FF4F8081918174
:102DD000E058F0408417950719F42FEF3FEF0CC02F
:102DE000E40FF51F2081CA01019660E870E00E949F
:102DF000F4189983888330E0C901DF91CF91089559
:102E0000DC011296ED91FC911397EE57FF4F8081F4
:102E10009181929382930895FC01A085B1852189C7
:102E20008C9190E0022E02C0959587950A94E2F766
:102E300080FFF6CF0484F585E02D6083089588E750
:102E400091E09093CB048093CA0486E494E090933D
:102E5000CD048093CC0485EC90E09093CF048093D4
:102E6000CE0484EC90E09093D1048093D00480EC65
:102E700090E09093D3048093D20481EC90E09093FF
:102E8000D5048093D40486EC90E09093D70480938B
:102E9000D60484E08093D80483E08093D90487E04B
:102EA0008093DA0485E08093DB0481E08093DC0486
:102EB00008950F931F93CF93DF938C01EB0109C00B
:102EC0002196D801ED91FC910190F081E02DC8018F
:102ED000099568816623A1F7DF91CF911F910F912A
:102EE0000895EF92FF920F931F93CF93DF938C017E
:102EF0007B01EA010CC0D7016D917D01D801ED91F4
:102F0000FC910190F081E02DC8010995219720974F
:102F100091F7DF91CF911F910F91FF90EF9008955E
:102F2000DC01ED91FC910190F081E02D099508956F
:102F3000DC01ED91FC910190F081E02D099508955F
:102F4000DC01ED91FC910280F381E02D099508955B
:102F50000F931F938C01DC01ED91FC910190F081A6
:102F6000E02D6DE00995D801ED91FC910190F08183
:102F7000E02DC8016AE009951F910F9108950F9304
:102F80001F938C010E94A017C8010E94A8171F91CF
:102F90000F9108952F923F924F925F926F927F927E
:102FA0008F929F92AF92BF92CF92DF92EF92FF9259
:102FB0000F931F93DF93CF93CDB7DEB7A0970FB6D4
:102FC000F894DEBF0FBECDBF1C016A017B01411525
:102FD00051056105710549F4DC01ED91FC91019009
:102FE000F081E02D60E3099554C0882499245401B0
:102FF000422E55246624772401E010E00C0F1D1F9B
:10300000080D191DC701B601A30192010E940719FD
:10301000F80160830894811C911CA11CB11CC7019C
:10302000B601A30192010E940719C901DA016C01DE
:103030007D01C114D104E104F104F1F681E0E82E30
:10304000F12CEC0EFD1EE80CF91C3E010894611CED
:10305000711CD501C4010197A109B1096C01C818FF
:10306000D90814C0F601EE0DFF1D60816A3010F41E
:10307000605D01C0695CD101ED91FC910190F0812E
:10308000E02DC10109950894E108F1086E147F0450
:1030900049F7A0960FB6F894DEBF0FBECDBFCF9113
:1030A000DF911F910F91FF90EF90DF90CF90BF9035
:1030B000AF909F908F907F906F905F904F903F90D8
:1030C0002F900895EF92FF920F931F93CF93DF936A
:1030D000EC017A018B0177FF0FC0E881F981019043
:1030E000F081E02D6DE2099510950095F094E09443
:1030F000E11CF11C011D111DCE01B801A7012AE040
:103100000E94CA17DF91CF911F910F91FF90EF900E
:103110000895AB01662757FD6095762F0E946218CF
:1031200008950F931F938C01AB01662757FD60959F
:10313000762F0E946218C8010E94A8171F910F9154
:103140000895DC012115310541F4ED91FC910190C8
:10315000F081E02D642F099508952A30310519F486
:103160000E94621808950E94CA1708950F931F9332
:103170008C010E94A118C8010E94A8171F910F91ED
:103180000895629FD001739FF001829FE00DF11DB1
:10319000649FE00DF11D929FF00D839FF00D749FD1
:1031A000F00D659FF00D9927729FB00DE11DF91F7D
:1031B000639FB00DE11DF91FBD01CF0111240895DA
:1031C000AA1BBB1B51E107C0AA1FBB1FA617B7074D
:1031D00010F0A61BB70B881F991F5A95A9F7809569
:1031E0009095BC01CD01089597FB092E07260AD0C2
:1031F00077FD04D0E5DF06D000201AF470956195C4
:103200007F4F0895F6F7909581959F4F0895A1E21D
:103210001A2EAA1BBB1BFD010DC0AA1FBB1FEE1F50
:10322000FF1FA217B307E407F50720F0A21BB30B9B
:10323000E40BF50B661F771F881F991F1A9469F717
:1032400060957095809590959B01AC01BD01CF0173
:10325000089597FB092E05260ED057FD04D0D7DF21
:103260000AD0001C38F450954095309521953F4F79
:103270004F4F5F4F0895F6F7909580957095619543
:103280007F4F8F4F9F4F0895EE0FFF1F0590F491D2
:08329000E02D0994F894FFCF32
:1032980052494646005741564500666D7420004E17
:1032A800494748542E574156004D494C4C5F4C2EC7
:1032B8005741560062006100696E427974653A2090
:1032C800006E004D494C4C5F424B472E574156000B
:1032D8005761766520746573742100FFFF01110042
:1032E8001300120007000800090010000F000E006C
:1032F80006000000010000000000000000000000BF
:0E33080032000000000000000C17591771176A
:00000001FF
