:100000000C9465000C948D000C948D000C948D0064
:100010000C948D000C948D000C948D000C948D002C
:100020000C948D000C948D000C948D000C948D001C
:100030000C948D000C948D000C948D000C948D000C
:100040000C94F60E0C948D000C942D100C948D00D5
:100050000C948D000C948D000C948D000C948D00EC
:100060000C94E0020C948D00000000002400270096
:100070002A0000000000250028002B0000000000DE
:1000800023002600290004040404040404040202DA
:100090000202020203030303030301020408102007
:1000A0004080010204081020010204081020000012
:1000B0000007000201000003040600000000000029
:1000C0000000D701AB04D705BE1111241FBECFEF2E
:1000D000D8E0DEBFCDBF13E0A0E0B1E0EAE3FDE28F
:1000E00002C005900D92AA34B107D9F714E0AAE432
:1000F000B3E001C01D92A235B107E1F710E0CAECF0
:10010000D0E004C02297FE010E949716C23CD1079E
:10011000C9F70E94EF0E0C949B160C9400000F93ED
:100120001F93CF93DF93689F8001699F100D789F85
:10013000100D1124C8010E94AB00EC01009729F0BA
:1001400060E070E0A8010E94AD01CE01DF91CF9187
:100150001F910F910895CF93DF93BC0182309105D9
:1001600010F462E070E0A0915004B0915104ED01F0
:10017000E0E0F0E040E050E021C0888199818617FE
:10018000970769F48A819B81309719F09383828362
:1001900004C09093510480935004FE0134C068174A
:1001A000790738F44115510519F08417950708F4BB
:1001B000AC01FE018A819B819C01E9012097E9F64F
:1001C00041155105A9F1CA01861B970B049708F444
:1001D000BA01E0E0F0E02AC08D919C91119784175C
:1001E0009507F9F46417750781F412968D919C9127
:1001F0001397309719F09383828304C0909351042E
:1002000080935004FD0132964CC0CA01861B970BA7
:10021000FD01E80FF91F6193719302978D939C93F1
:1002200040C0FD01828193819C01D9011097A1F604
:1002300080914E0490914F04892B41F48091CC021F
:100240009091CD0290934F0480934E044091CE0242
:100250005091CF024115510541F44DB75EB78091E1
:10026000CA029091CB02481B590B20914E04309149
:100270004F04CA01821B930B8617970780F0AB01CE
:100280004E5F5F4F8417950750F0420F531F5093F6
:100290004F0440934E04F9016193719302C0E0E072
:1002A000F0E0CF01DF91CF910895CF93DF930097D6
:1002B00009F450C0EC0122971B821A82A0915004CD
:1002C000B0915104109709F140E050E0AC17BD0720
:1002D00008F1BB83AA83FE0121913191E20FF31F44
:1002E000AE17BF0779F48D919C911197280F391F94
:1002F0002E5F3F4F3983288312968D919C911397DF
:100300009B838A834115510571F4D0935104C093A6
:10031000500420C012968D919C911397AD010097C7
:1003200011F0DC01D3CFFA01D383C2832191319143
:10033000E20FF31FCE17DF0769F488819981280F38
:10034000391F2E5F3F4FFA01318320838A819B81C1
:1003500093838283DF91CF910895DC0101C06D9377
:1003600041505040E0F7089581E08093530360933B
:100370004E031092510310925203089580914D0341
:1003800090914C03891B089590914C0380914D03EB
:10039000981710F080E00895E0914A03F0914B0324
:1003A000E90FF11D80819F5F90934C03089508959C
:1003B000DF93CF930F92CDB7DEB76983809153035C
:1003C0008823A9F0809152038032B0F480915103C8
:1003D000E0914F03F0915003E80FF11D608380918D
:1003E00051038F5F809351038093520305C0CE0168
:1003F000019661E00E94C3020F90CF91DF910895B2
:100400000E94D801089560914F037091500380912C
:100410004E034091520321E00E947E02109251034C
:1004200010925203109253030895862F60914A034D
:1004300070914B03413208F040E20E944602109254
:100440004C0380934D0308950E941502089580E2A5
:1004500090E061E070E00E948F0080934A039093E7
:100460004B0310924C0310924D0380E290E061E048
:1004700070E00E948F0080934F039093500310927E
:100480005103109252030E9462040895982F413242
:1004900010F040E031C0809155038823E1F781E0FE
:1004A000809355038FEF8093660310925D03415054
:1004B00040935E034F5F990F91609093560385EED2
:1004C0008093BC00809155038130E1F380915D03FE
:1004D000841710F440915D03A0915B03B0915C031D
:1004E00020E030E007C0FB01E20FF31F8D91808315
:1004F0002F5F3F4F2417B8F3842F08951F93582F71
:10050000122F413210F081E03CC0809155038823C6
:10051000E1F782E0809355038FEF8093660310929A
:100520005D0340935E03A0915B03B0915C03FB010C
:1005300002C081918D938E2F861B8417D0F3852F57
:1005400090E0880F991F8093560385EE8093BC003E
:10055000112321F0809155038230E1F380916603ED
:100560008F3F11F480E00DC080916603803211F45A
:1005700082E007C080916603803311F084E001C0FF
:1005800083E01F910895482F613210F081E00895B3
:1005900080915503843011F082E0089560936203E6
:1005A000A0915F03B0916003842F9C01F90102C008
:1005B00081918D938E2F841B8617D0F380E0089550
:1005C0001F920F920FB60F9211242F933F934F93C8
:1005D0005F936F937F938F939F93AF93BF93EF93AB
:1005E000FF938091B90090E0887F907080369105EC
:1005F00009F4E2C081369105CCF58832910509F401
:100600007BC089329105B4F48031910509F46FC043
:10061000813191053CF4009709F438C1089709F03D
:1006200040C165C08831910509F466C0809709F022
:1006300038C17FC08034910509F4A3C0813491058D
:1006400044F48033910509F47FC0C89709F029C1AB
:1006500086C08035910509F486C08835910509F476
:1006600095C08834910509F01CC19EC08839910558
:1006700009F404C189399105ECF48837910509F42E
:100680009BC0893791054CF48836910509F494C0D4
:100690008037910509F005C18FC08838910509F4AC
:1006A000EDC08039910509F48DC08038910509F0BD
:1006B000F8C088C0803B910509F4B2C0813B910528
:1006C0004CF4803A910509F491C0883A910509F0FB
:1006D000E8C0A6C0803C910509F4D4C0883C9105CF
:1006E00009F4D0C0883B910509F0DBC0B1C080910E
:1006F00056038093BB00C0C090915D0380915E0360
:10070000981778F490915D03E0915B03F0915C039E
:10071000E90FF11D80818093BB009F5F90935D0383
:10072000ABC085ED8093BC008091BC0084FDFCCF04
:10073000B6C080E28093660385ED8093BC00809113
:10074000BC0084FDFCCFABC080E38093660385EDE5
:100750008093BC008091BC0084FDFCCFA0C088E3E6
:10076000809366038FC080915D039091BB00E09100
:100770005B03F0915C03E80FF11D90838F5F809322
:100780005D0390915D0380915E0374C080915D0371
:100790009091BB00E0915B03F0915C03E80FF11DC9
:1007A00090838F5F80935D0385ED8093BC00809183
:1007B000BC0084FDFCCF73C083E08093550310928E
:1007C00065035AC080916503803208F057C080915C
:1007D00065039091BB00E0916303F0916403E80F1F
:1007E000F11D90838F5F8093650346C08091650300
:1007F000803248F480916503E0916303F0916403D3
:10080000E80FF11D108260916503E0915903F091AA
:100810005A03809163039091640370E0099532C09C
:1008200084E0809355031092610310926203E0917B
:100830005703F0915803099580916203882341F48E
:1008400081E080936203E0915F03F0916003108286
:1008500090916103E0915F03F0916003E90FF11D56
:1008600080818093BB009F5F9093610390916103AF
:1008700080916203981710F485EC01C085E880939D
:10088000BC000FC085EC8093BC0009C010926603C9
:1008900085ED8093BC008091BC0084FDFCCF10925C
:1008A0005503FF91EF91BF91AF919F918F917F91F0
:1008B0006F915F914F913F912F910F900FBE0F90CD
:1008C0001F90189510925503449A459AE9EBF0E071
:1008D00080818E7F808380818D7F808388E4809378
:1008E000B80085E48093BC0080E290E061E070E0B5
:1008F0000E948F0080935B0390935C0380E290E002
:1009000061E070E00E948F0080935F03909360032A
:1009100080E290E061E070E00E948F0080936303CA
:10092000909364030895FC01E081E23069F0E330C4
:1009300018F4E13079F405C0E33049F0E43051F4C3
:1009400008C06093B30008956093B400089567BD34
:10095000089568BD08950895E0EBF0E090819368F4
:10096000908387708093B1001092B3008BE061E0B8
:100970000E94C00F0895E0EBF0E0908193629083B5
:1009800087708093B1001092B40083E061E00E9410
:10099000C00F0895CF93DF938CE060E00E94E00FDA
:1009A00088E060E00E94E00FC7E0D0E084E060E013
:1009B0000E94E00F8091680390E00C2E02C0959594
:1009C00087950A94E2F780FF03C088E061E002C0E7
:1009D00088E060E00E94E00F84E061E00E94E00FA8
:1009E00021978FEFCF3FD80709F78CE061E00E9495
:1009F000E00FDF91CF910895FC01E081E23061F0DA
:100A0000E33020F4E13009F05DC009C0E33051F07B
:100A1000E43009F057C009C041E054E008C042E0AA
:100A200053E005C045E057E002C040E056E06230C8
:100A3000C1F0643079F1613009F044C081E090E0A8
:100A40009C0102C0220F331F5A95E2F7209502C085
:100A5000880F991F4A95E2F740916803482B242399
:100A600012C081E090E09C0102C0220F331F4A9522
:100A7000E2F7209540916803242302C0880F991F54
:100A80005A95E2F7282B2093680387E693E00E94AB
:100A9000CA04089581E090E09C0102C0220F331F38
:100AA0004A95E2F702C0880F991F5A95E2F7822B08
:100AB00080952091680328232093680387E693E0BC
:100AC0000E94CA0408950F931F938C018CE061E08B
:100AD0000E94C00F87E061E00E94C00F88E061E0E3
:100AE0000E94C00F84E061E00E94C00F1092680372
:100AF000C8010E94CA0487E060E00E94E00F1F91D5
:100B00000F9108950F931F93FC01162F042F6083FC
:100B1000418387E693E00E9463051230C1F01330F1
:100B200020F4113009F040C005C01330E9F0143052
:100B3000D9F529C080916803837F8093680387E695
:100B400093E00E94CA04802F0E94AC042DC08091C3
:100B500068038D7E8093680387E693E00E94CA0451
:100B6000802F0E94BB0420C0809168038F75809302
:100B7000680387E693E00E94CA0484B5836884BD55
:100B800017BC86E00EC0809168038E7B809368035B
:100B900087E693E00E94CA0484B5836284BD18BCD2
:100BA00085E061E00E94C00F1F910F9108958BE6D0
:100BB00093E061E043E00E94820508950F931F9344
:100BC00004E513E0C8010E942702C80162E570E055
:100BD0000E94B401C80160E470E00E940002C801F4
:100BE00060E070E00E940002C8010E9403021F91B1
:100BF0000F9108951F93CF93DF9384E593E062E50F
:100C000070E046E050E00E942402C8EAD3E017E119
:100C100007C084E593E00E94C4018127895E89931F
:100C200084E593E00E94BE01882399F784E593E070
:100C300062E570E00E94B40184E593E060E070E05A
:100C40000E94000284E593E00E94030261E070E0EC
:100C500080E090E00E943E0F8091AA0380936D0394
:100C60008091A803809370038091A90380937103FE
:100C70002091AD0330E041E050E0C9018427952781
:100C8000817080936E033695279524273527217030
:100C900020936F03DF91CF911F910895CF92DF9240
:100CA000EF92FF920F931F93CF93DF9327E9C22E0A
:100CB00023E0D22E91E0E92EF12C8091FB0261E03D
:100CC0000E94E00F09EF12E0C2E0D0E0B7010C2E65
:100CD00002C0759567950A94E2F761707070F8012B
:100CE00080810E94E00F219702501040FFEFCF3F1C
:100CF000DF0761F785E0E816F10431F46AE070E09F
:100D000080E090E00E943E0F8091FD020E94A20FC1
:100D1000F601918380838091690390916A03029721
:100D2000F1F480918F0390919003892BC1F48BE3B0
:100D300094E0B7010E9434138BE394E060E071E02B
:100D40000E943712F601608171818BE394E00E946A
:100D500034138BE394E064E071E00E94371208944E
:100D6000E11CF11C82E090E0C80ED91E97E0E91664
:100D7000F10409F0A2CF8091690390916A03029770
:100D800051F480918F0390919003892B21F48BE390
:100D900094E00E943F12DF91CF911F910F91FF903D
:100DA000EF90DF90CF900895EF92FF920F931F93F3
:100DB000CF93DF938BE394E040E855E260E070E08E
:100DC0000E946A108091F50261E00E94C00F80913C
:100DD000F70261E00E94C00F8091F90261E00E9479
:100DE000C00F8091FB0261E00E94C00F8091FF0262
:100DF00060E00E94C00F8091FF0261E00E94E00F5E
:100E00008091390361E00E94C00F8091390361E055
:100E10000E94E00F80913B0361E00E94C00F80912F
:100E20003B0361E00E94E00F8091E30261E00E94D9
:100E3000C00F8091E50261E00E94C00F8091E30243
:100E400060E00E94E00F8091E50260E00E94E00F08
:100E50000E94DE050E94FA050E94FA058091700347
:100E6000809372038091690390916A0318161906A2
:100E70000CF088C08BE394E067E071E00E943712C9
:100E80008BE394E068E271E00E9437126091D30234
:100E90007091D4028BE394E00E943C138BE394E0C6
:100EA00068E371E00E9437126091D9027091DA0212
:100EB0008BE394E00E943C138BE394E068E471E0E0
:100EC0000E9437126091DD027091DE028BE394E0A4
:100ED0000E943C138BE394E066E571E00E943712B8
:100EE0006091DB027091DC028BE394E00E943C1382
:100EF0008BE394E065E671E00E94371240916D0348
:100F000050E060E070E08BE394E02AE030E00E9483
:100F10004C138BE394E06AE771E00E943712409132
:100F2000700350E060E070E08BE394E02AE030E092
:100F30000E944C138BE394E063E871E00E94371247
:100F400040916F0350E060E070E08BE394E02AE0B2
:100F500030E00E944C138BE394E06CE871E00E9457
:100F6000371240916E0350E060E070E08BE394E054
:100F70002AE030E00E9461138BE394E065E971E0C0
:100F80000E9466128BE693E060E00E9493048BE679
:100F900093E06091D1020E94FC040E944E06809171
:100FA0009B0390919C03815991407CF080919D031B
:100FB00090919E038159914044F01092D0028BE3AE
:100FC00094E06AEB71E00E9466128BE394E06FECB0
:100FD00071E00E946612C3E0D3E03BE9E32E33E008
:100FE000F32E00E010E00230110559F0F701808186
:100FF0009181C296998388838C599F4F9B838A8362
:101000000EC080919F039091A00349979093140381
:1010100080931303C29790931603809315038BE379
:1010200094E0B8010E9434138BE394E06EED71E01C
:101030000E943712688179818BE394E00E94341317
:101040008BE394E06EED71E00E9437126A817B8140
:101050008BE394E00E943C130F5F1F4F289682E0C1
:1010600090E0E80EF91E0430110509F0BCCF68EEDF
:1010700073E080E090E00E943E0F8091390360E0D1
:101080000E94E00F8BE394E00E949F11DF91CF91CB
:101090001F910F91FF90EF9008954091A703E1E217
:1010A000F3E020E030E060E081919191022E02C0F7
:1010B000880F991F0A94E2F7682B2F5F3F4F273064
:1010C000310591F760586093A7036417B1F08BE383
:1010D00094E00E942F128091690390916A03181680
:1010E00019065CF44091A70350E060E070E08BE3E8
:1010F00094E022E030E00E94611308952F923F9225
:101100004F925F926F927F928F929F92AF92BF9217
:10111000CF92DF92EF92FF920F931F93CF93DF93C3
:101120008BE394E00E946311882309F461C08BE390
:1011300094E00E9477119093A6038093A5038136D3
:10114000910559F58091690390916A031816190663
:1011500034F48BE394E060EE71E00E94661281E06B
:1011600080933D0321E030E0309384032093830398
:101170008093D0028091DF029091E00290937603F9
:101180008093750380913B0361E00E94E00F68EE5D
:1011900073E080E090E00E943E0F8091A503909163
:1011A000A6038236910521F58091690390916A0327
:1011B0001816190634F48BE394E063EF71E00E9493
:1011C000661210923D0310928403109283031092D2
:1011D00076031092750380913B0360E00E94E00F5C
:1011E0001092D00268EE73E080E090E00E943E0F23
:1011F0000E944E060E94FA05809170038F3FE9F429
:101200000E94DE058091690390916A031816190601
:1012100034F48BE394E067E072E00E94661264EFBE
:1012200071E080E090E00E943E0F0E94FA050E946B
:10123000FA0580917003809372038091E10290918E
:10124000E202019709F0F3C080916D03882309F44D
:10125000EEC080916F03882309F4E9C08091E70212
:101260009091E802019690938E0380938D030397EB
:1012700024F010928E0310928D0381E090E0909301
:101280008C0380938B03A091E702B091E802AA0F30
:10129000BB1FAA0FBB1FA751BD4FE0918D03F0915B
:1012A0008E03EE0FFF1FEE0FFF1FE751FD4F2D9135
:1012B0003C91808191812817390791F080919703A3
:1012C00090919803855F91403CF4809199039091AF
:1012D0009A03855F914024F010928C0310928B0347
:1012E000A091E702B091E802AA0FBB1FAA0FBB1F93
:1012F000A551BD4FE0918D03F0918E03EE0FFF1FBE
:10130000EE0FFF1FE551FD4F2D913C9180819181A2
:101310002817390759F08091990390919A03855FB6
:10132000914024F010928C0310928B0380918B03D8
:1013300090918C03892B29F48091D002882309F0A5
:1013400069C0E0918D03F0918E03F093E802E09381
:10135000E702EE0FFF1FEE0FFF1FE751FD4F8091D9
:10136000E30260810E94E00FE091E702F091E80261
:101370001E161F065CF4EE0FFF1FEE0FFF1FE55158
:10138000FD4F8091E50260810E94E00F1092E20221
:101390001092E10210929203109291038091E70261
:1013A0009091E802892B71F481E090E09093220300
:1013B000809321031092240310922303109226039A
:1013C000109225038091E7029091E8028130910507
:1013D00061F41092220310922103909324038093CE
:1013E000230310922603109225038091E702909127
:1013F000E8020297E1F41092220310922103109266
:1014000024031092230381E090E0909326038093BD
:1014100025030DC08091690390916A03181619067F
:1014200034F48BE394E063E172E00E9466128091F1
:101430006D03882309F43BC180916E03882301F179
:101440008091830390918403892B29F01092840367
:10145000109283031DC081E090E0909384038093F9
:101460008303609177037091780380917903909161
:101470007A030E94C814709376036093750308C0C2
:101480008091DD029091DE029093D8028093D70282
:1014900080917003482F50E080917203481B5109DE
:1014A00050937403409373032091D5023091D60278
:1014B00088279927821B930B481759070CF061C0A6
:1014C0008091D1029091D202019709F05AC01092F6
:1014D00076031092750380913D03882369F481E0BF
:1014E00080933D0380913B0361E00E94E00F8BE31A
:1014F00094E061E60E9456128091DB029091DC023A
:101500009093D8028093D7026091D5027091D60251
:10151000882777FD8095982F0E94FB149B01AC01D2
:1015200060917703709178038091790390917A03A9
:101530000E945C1488230CF0BAC080E090E0A0E028
:10154000B0E08093770390937803A0937903B093EE
:101550007A0382E090E09093D2028093D1028BE6EE
:1015600093E062E00E94FC048091690390916A0319
:10157000181619060CF09BC08BE394E06DE172E045
:1015800063C0241735070CF062C08091D10290919E
:10159000D202029709F05BC0109276031092750395
:1015A0008091DB029091DC029093D8028093D70265
:1015B00080913D03882369F481E080933D0380910D
:1015C0003B0361E00E94E00F8BE394E061E60E9440
:1015D00056126091D5027091D602882777FD8095CA
:1015E000982F0E94FB149B01AC01609177037091CE
:1015F00078038091790390917A030E945C14882388
:101600000CF055C080E090E0A0E0B0E0809377035C
:1016100090937803A0937903B0937A0381E090E0EC
:101620009093D2028093D1028BE693E061E00E9416
:10163000FC048091690390916A0318161906BCF5A1
:101640008BE394E067E372E00E94661230C0809101
:10165000830390918403892B51F5CA0157FF04C07D
:1016600088279927841B950B821793072CF41092D7
:101670007603109275031BC08091D3029091D4021F
:10168000489F9001499F300D589F300D11242436FA
:10169000310524F0C90164E670E003C0C9016CE9BA
:1016A0007FEF0E9431166093750370937603A090CC
:1016B0007703B0907803C0907903D0907A0360915B
:1016C000750370917603882777FD8095982F0E9487
:1016D000FB141B012C01A60195010E94F7137B014D
:1016E0008C016091D7027091D802882777FD809590
:1016F000982F0E94FB149B01AC01C801B7010E9406
:1017000060143B014C0160937F03709380038093CE
:101710008103909382036091D9027091DA02882745
:1017200077FD8095982F0E94FB147B018C01C601E8
:10173000B501A80197010E945C148823F4F4C60146
:10174000B501A20191010E94AB1588236CF080E0E5
:1017500090E0A0E0B0E08093770390937803A093AB
:101760007903B0937A0317C0E0927703F09278037D
:101770000093790310937A030EC0C601B501A4014A
:1017800093010E94F813609377037093780380931A
:10179000790390937A038091D002882309F402C2DE
:1017A00010929403109293038BE9A82E83E0B82E35
:1017B00001E3802E03E0902E13E0E12E13E0F12EE2
:1017C000C0E0D0E0B1E0CB2ED12C0F2EF0E04F2EB8
:1017D000F0E05F2EF0E06F2EF0E07F2EF02DC230B3
:1017E000D10509F4CFC0F50120813181D7018D9158
:1017F0009C91D401ED91FC91821793070CF05AC093
:10180000EE0FFF1FEF5DFC4FD182C0822091D1020D
:101810003091D202F7018481958128173907E9F1C7
:101820008091890390918A03892B91F5D0928A0344
:10183000C09289038091770390917803A0917903F6
:10184000B0917A0380937B0390937C03A0937D03F4
:10185000B0937E03809185039091860390937603E5
:10186000809375031092840310928303809169031F
:1018700090916A03181619065CF48BE394E060E516
:1018800072E00E9437128BE394E0BE010E943C1389
:101890008091DB029091DC0208C010928A031092C2
:1018A00089038091DD029091DE029093D8028093AB
:1018B000D70206C0EE0FFF1FEF5DFC4F11821082B2
:1018C000D5012D913C91F701828193818217930775
:1018D0000CF041C1809193039091940301969093F1
:1018E000940380939303248135818091D102909158
:1018F000D2028217930709F432C180918703909135
:101900008803892B09F02BC1D0928803C0928703EA
:10191000122F3093D2022093D1024092770350923B
:1019200078036092790370927A038091DD0290913E
:10193000DE029093D8028093D70260917B0370916E
:101940007C0380917D0390917E030E94C814709364
:101950007603609375038BE693E0612F0E94FC048D
:101960008091690390916A03181619060CF0F7C06C
:101970008BE394E062E672E00E9437128BE394E01E
:10198000BE01E6C020919F033091A0038091130314
:1019900090911403281739070CF061C02091D102EF
:1019A0003091D202809117039091180328173907BC
:1019B00009F448C08091890390918A03892BE9F545
:1019C000D0928A03C0928903E0913503F0913603E7
:1019D000EE0FFF1FEF5DFC4F80917703909178032E
:1019E000A0917903B0917A0380937B0390937C0359
:1019F000A0937D03B0937E0380918503909186032D
:101A0000909376038093750310928403109283035E
:101A1000D182C0828091690390916A0318161906D9
:101A200064F48BE394E060E572E00E9437128BE38C
:101A300094E062E070E00E943C138091DB029091A0
:101A4000DC0208C010928A03109289038091DD02A3
:101A50009091DE029093D8028093D7020AC0E09161
:101A60003503F0913603EE0FFF1FEF5DFC4F11823F
:101A7000108220919F033091A003809115039091D3
:101A80001603281739070CF066C0809193039091D4
:101A900094030196909394038093930320911703EA
:101AA000309118038091D1029091D202821793074E
:101AB00009F455C08091870390918803892B09F020
:101AC0004EC0D0928803C0928703E0913503F09115
:101AD0003603EE0FFF1FEF5DFC4FD182C082122F45
:101AE0003093D2022093D102409277035092780330
:101AF0006092790370927A038091DD029091DE0208
:101B00009093D8028093D70260917B0370917C03FD
:101B100080917D0390917E030E94C8147093760398
:101B2000609375038BE693E0612F0E94FC04809123
:101B3000690390916A03181619068CF48BE394E0FC
:101B400062E672E00E9437128BE394E062E070E09C
:101B50000E943C1304C010928803109287032196C0
:101B600082E090E0A80EB91E880E991EA8E0B0E0B1
:101B7000EA0EFB1EC430D10509F031CE80919303EB
:101B8000909194031816190624F48091390361E0AA
:101B900003C08091390360E00E94E00F109230038F
:101BA00010922F038091830390918403892B09F471
:101BB0003FC0609177037091780380917903909191
:101BC0007A0320E030E040E050E00E945C1488237B
:101BD00079F58091D1029091D202019719F482E0B7
:101BE00090E002C081E090E09093D2028093D10215
:101BF00080E090E0A0EAB0E48093770390937803CC
:101C0000A0937903B0937A038BE693E06091D102BD
:101C10000E94FC0460917B0370917C0380917D03A2
:101C200090917E030E94C8147093760360937503AD
:101C3000E0907703F09078030091790310917A0394
:101C4000C801B70120E030E040E050E00E94AB1551
:101C500018161CF4C801B70103C0C801B701905899
:101C60000E94CD148BE693E00E9493048091690357
:101C700090916A03019709F078C080918F03909149
:101C80009003892B09F071C08BE394E063E772E065
:101C90000E9437124091710350E060E070E08BE3E6
:101CA00094E02AE030E00E944C138BE394E06CE770
:101CB00072E00E9437126091890370918A038BE36E
:101CC00094E00E9434138BE394E067E872E00E9492
:101CD000371260918703709188038BE394E00E9430
:101CE00034138BE394E064E972E00E943712609150
:101CF000D1027091D2028BE394E00E9434138BE303
:101D000094E061EA72E00E9437126091750370916D
:101D100076038BE394E00E9434138BE394E06EEA45
:101D200072E00E94371240917703509178036091DE
:101D3000790370917A038BE394E00E94F3138BE3B1
:101D400094E06BEB72E00E94371240917B0350915C
:101D50007C0360917D0370917E038BE394E00E948D
:101D6000F3138BE394E00E943F120E944D08809190
:101D70008F039091900301969093900380938F032B
:101D800085369105CCF01092900310928F038091CC
:101D90009103909192030196909392038093910303
:101DA000029754F081E090E09093E2028093E10288
:101DB0001092920310929103DF91CF911F910F9196
:101DC000FF90EF90DF90CF90BF90AF909F908F905B
:101DD0007F906F905F904F903F902F9008950E945A
:101DE000680F0E94D4060E947E08FDCF1F920F92BA
:101DF0000FB60F9211242F933F938F939F93AF931E
:101E0000BF938091B2039091B303A091B403B091BA
:101E1000B5033091B6030196A11DB11D232F2D5F8F
:101E20002D3720F02D570196A11DB11D2093B6032B
:101E30008093B2039093B303A093B403B093B5031C
:101E40008091AE039091AF03A091B003B091B10324
:101E50000196A11DB11D8093AE039093AF03A09393
:101E6000B003B093B103BF91AF919F918F913F9118
:101E70002F910F900FBE0F901F901895EF92FF9229
:101E80000F931F937B018C018FB7F8944091B2039D
:101E90005091B3036091B4037091B5038FBF2FB716
:101EA000F8948091B2039091B303A091B403B091E0
:101EB000B5032FBF841B950BA60BB70BE816F906CD
:101EC0000A071B0760F71F910F91FF90EF9008958D
:101ED000789484B5826084BD84B5816084BD85B505
:101EE000826085BD85B5816085BDEEE6F0E08081CC
:101EF00081608083E1E8F0E080818260808380817E
:101F000081608083E0E8F0E0808181608083E1EBA4
:101F1000F0E0808184608083E0EBF0E0808181608C
:101F20008083EAE7F0E08081846080838081826042
:101F3000808380818160808380818068808310922B
:101F4000C10008958F7090913E039295990F990F5B
:101F5000907C982B90937C0080917A008064809391
:101F60007A0080917A0086FDFCCF20917800409124
:101F70007900942F80E030E0282B392BC901089597
:101F8000282F30E0C90186569F4FFC0194912A57B3
:101F90003F4FF9018491882391F0E82FF0E0EE0F94
:101FA000FF1FE859FF4FA591B491662329F48C9146
:101FB000909589238C9308958C91892B8C93089507
:101FC000482F50E0CA0182559F4FFC012491CA015D
:101FD00086569F4FFC0194914A575F4FFA01349106
:101FE0003323D1F1222331F1233021F48091800079
:101FF0008F7705C0243031F4809180008F7D8093ED
:10200000800018C0213019F484B58F7704C02230C5
:1020100021F484B58F7D84BD0DC0263021F48091DC
:10202000B0008F7705C0273029F48091B0008F7DF4
:102030008093B000E32FF0E0EE0FFF1FEE58FF4F4C
:10204000A591B491662329F48C91909589238C9362
:1020500008958C91892B8C9308951F920F920FB63F
:102060000F9211242F933F934F935F936F937F931E
:102070008F939F93AF93BF93EF93FF934091C600CD
:10208000E0913704F0913804CF01019660E870E0E8
:102090000E9431169C018091390490913A042817CE
:1020A000390739F0E954FC4F4083309338042093CA
:1020B0003704FF91EF91BF91AF919F918F917F91E5
:1020C0006F915F914F913F912F910F900FBE0F90A5
:1020D0001F9018955F926F927F928F929F92AF920E
:1020E000BF92CF92DF92EF92FF920F931F93CF9305
:1020F000DF93EC013A014B01413482E458078FE051
:10210000680780E078070CF07FC060E874E88EE133
:1021100090E0A40193010E94661621503040404097
:102120005040CA01B90122E030E040E050E00E9496
:10213000661659016A01A6019501209530954095D2
:10214000509594E0220F331F441F551F9A95D1F7E5
:1021500060E074E284EF90E00E946616CA01B90163
:102160002FEF30E040E050E00E941216A4019301EE
:102170000E946616C90181509F4F181619061CF45B
:10218000522E5A9403C055245394521A60E079E0B9
:102190008DE390E0A40193010E9466162150304027
:1021A00040405040CA01B90122E030E040E050E038
:1021B0000E946616209530954095509583E0220F39
:1021C000331F441F551F8A95D1F760E074E284EFF6
:1021D00090E00E946616CA01B9012FEF30E040E09E
:1021E00050E00E941216A40193010E946616C901D4
:1021F00081509F4F181619061CF4822F815002C07F
:1022000081E0821B851500F5E885F98581E090E085
:102210000A8802C0880F991F0A94E2F7808360E061
:1022200079E08DE390E0A40193010E9466162150AD
:10223000304040405040CA01B90122E030E040E067
:1022400050E00E94661604C0E885F9851082950169
:10225000EC81FD813083EE81FF812083EA85FB855F
:10226000208141E050E0CA010E8402C0880F991F0E
:102270000A94E2F7282B2083EA85FB852081CA0196
:102280000F8402C0880F991F0A94E2F7282B20833D
:10229000EA85FB858081088802C0440F551F0A9497
:1022A000E2F7842B8083DF91CF911F910F91FF90F4
:1022B000EF90DF90CF90BF90AF909F908F907F90E6
:1022C0006F905F900895DC011296ED91FC91139749
:1022D000E058FF4F8191919180589F4F208131812B
:1022E000821B930B60E870E00E9431160895CF9333
:1022F000DF93DC011296ED91FC911397EF01CE571D
:10230000DF4F48815981E058FF4F80819181E0582B
:10231000F0408417950719F42FEF3FEF0CC0E40F3E
:10232000F51F2081CA01019660E870E00E94311615
:102330009983888330E0C901DF91CF910895DC0152
:102340001296ED91FC911397EE57FF4F808191818A
:10235000929382930895FC01A085B18521898C9187
:1023600090E0022E02C0959587950A94E2F780FFCF
:10237000F6CF0484F585E02D6083089583E493E02F
:1023800090933C0480933B0487EB93E090933E044E
:1023900080933D0485EC90E09093400480933F044B
:1023A00084EC90E0909342048093410480EC90E0B0
:1023B000909344048093430481EC90E0909346040E
:1023C0008093450486EC90E0909348048093470402
:1023D00084E08093490483E080934A0487E08093FB
:1023E0004B0485E080934C0481E080934D04089574
:1023F0000F931F93CF93DF938C01EB0109C02196BC
:10240000D801ED91FC910190F081E02DC801099572
:1024100068816623A1F7DF91CF911F910F910895F5
:10242000EF92FF920F931F93CF93DF938C017B0169
:10243000EA010CC0D7016D917D01D801ED91FC91AD
:102440000190F081E02DC80109952197209791F71F
:10245000DF91CF911F910F91FF90EF900895DC01D4
:10246000ED91FC910190F081E02D09950895DC013A
:10247000ED91FC910280F381E02D099508950F9371
:102480001F938C01DC01ED91FC910190F081E02D16
:102490006DE00995D801ED91FC910190F081E02D5E
:1024A000C8016AE009951F910F9108950F931F933A
:1024B0008C01DC01ED91FC910190F081E02D0995FA
:1024C000C8010E943F121F910F9108950F931F930F
:1024D0008C010E943712C8010E943F121F910F9178
:1024E00008952F923F924F925F926F927F928F92B8
:1024F0009F92AF92BF92CF92DF92EF92FF920F9393
:102500001F93DF93CF93CDB7DEB7A0970FB6F894A4
:10251000DEBF0FBECDBF1C016A017B014115510515
:102520006105710549F4DC01ED91FC910190F081A8
:10253000E02D60E3099554C0882499245401422E6B
:1025400055246624772401E010E00C0F1D1F080DB0
:10255000191DC701B601A30192010E944416F8019A
:1025600060830894811C911CA11CB11CC701B60199
:10257000A30192010E944416C901DA016C017D0198
:10258000C114D104E104F104F1F681E0E82EF12C4C
:10259000EC0EFD1EE80CF91C3E010894611C711C38
:1025A000D501C4010197A109B1096C01C818D90866
:1025B00014C0F601EE0DFF1D60816A3010F4605DFD
:1025C00001C0695CD101ED91FC910190F081E02D99
:1025D000C10109950894E108F1086E147F0449F7D8
:1025E000A0960FB6F894DEBF0FBECDBFCF91DF919E
:1025F0001F910F91FF90EF90DF90CF90BF90AF9021
:102600009F908F907F906F905F904F903F902F9012
:1026100008952AE00E9471120895EF92FF920F939D
:102620001F93CF93DF93EC017A018B0177FF0FC0EB
:10263000E881F9810190F081E02D6DE20995109516
:102640000095F094E094E11CF11C011D111DCE01D8
:10265000B801A7012AE00E947112DF91CF911F916A
:102660000F91FF90EF900895AB01662757FD60959D
:10267000762F0E940D1308950F931F938C01AB01C9
:10268000662757FD6095762F0E940D13C8010E94A2
:102690003F121F910F910895DC012115310541F47E
:1026A000ED91FC910190F081E02D642F0995089542
:1026B0002A30310519F40E940D1308950E947112F9
:1026C00008950F931F938C010E944C13C8010E9420
:1026D0003F121F910F9108959F92AF92BF92CF9298
:1026E000DF92EF92FF920F931F93CF93DF93EC0152
:1026F0007A018B01922ECB01BA0120E030E040E05C
:1027000050E00E945C14882364F4E881F981019010
:10271000F081E02DCE016DE2099517FB109517F9B8
:10272000109520E030E040E05FE3AA240BC0CA012E
:10273000B90120E030E040E251E40E9460149B01C6
:10274000AC01A394A91498F3C801B7010E94F8132F
:102750005B016C010E94CD147B018C01CE01B8019C
:10276000A7010E940913992029F0CE0168EC72E0BC
:102770000E943712C801B7010E94F9149B01AC01F5
:10278000C601B5010E94F71320C020E030E040E20E
:1027900051E40E94AF157B018C010E94C8145B01BB
:1027A0006C01CC24B7FCC094DC2CCE01B601A50191
:1027B0000E940D13C601B5010E94FB149B01AC01E0
:1027C000C801B7010E94F7139A949920F1F6DF919E
:1027D000CF911F910F91FF90EF90DF90CF90BF901E
:1027E000AF909F90089522E00E946C130895505876
:1027F000BB27AA270ED075C166D130F06BD120F06F
:1028000031F49F3F11F41EF45BC10EF4E095E7FB39
:1028100051C1E92F77D180F3BA1762077307840794
:10282000950718F071F49EF58FC10EF4E0950B2E0C
:10283000BA2FA02D0B01B90190010C01CA01A00112
:102840001124FF27591B99F0593F50F4503E68F16D
:102850001A16F040A22F232F342F4427585FF3CFAE
:10286000469537952795A795F0405395C9F77EF47F
:102870001F16BA0B620B730B840BBAF09150A1F0C8
:10288000FF0FBB1F661F771F881FC2F70EC0BA0F4E
:10289000621F731F841F48F4879577956795B795D6
:1028A000F7959E3F08F0B3CF9395880F08F09927CE
:1028B000EE0F979587950895D9D008F481E0089593
:1028C0000CD00FC107D140F0FED030F021F45F3FB3
:1028D00019F0F0C0511139C1F3C014D198F3992304
:1028E000C9F35523B1F3951B550BBB27AA276217D4
:1028F0007307840738F09F5F5F4F220F331F441F19
:10290000AA1FA9F333D00E2E3AF0E0E830D0915050
:102910005040E695001CCAF729D0FE2F27D0660F3D
:10292000771F881FBB1F261737074807AB07B0E87C
:1029300009F0BB0B802DBF01FF2793585F4F2AF092
:102940009E3F510568F0B6C000C15F3FECF3983E72
:10295000DCF3869577956795B795F7959F5FC9F7EF
:10296000880F911D9695879597F90895E1E0660F78
:10297000771F881FBB1F621773078407BA0720F0F1
:10298000621B730B840BBA0BEE1F88F7E09508955A
:1029900004D06894B111D9C00895BCD088F09F5775
:1029A00090F0B92F9927B751A0F0D1F0660F771F9B
:1029B000881F991F1AF0BA95C9F712C0B13081F07B
:1029C000C3D0B1E00895C0C0672F782F8827B85FC3
:1029D00039F0B93FCCF3869577956795B395D9F7DC
:1029E0003EF490958095709561957F4F8F4F9F4FE6
:1029F0000895E89409C097FB3EF4909580957095F2
:102A000061957F4F8F4F9F4F9923A9F0F92F96E93A
:102A1000BB279395F695879577956795B795F111AF
:102A2000F8CFFAF4BB0F11F460FF1BC06F5F7F4F4C
:102A30008F4F9F4F16C0882311F096E911C077235E
:102A400021F09EE8872F762F05C0662371F096E867
:102A5000862F70E060E02AF09A95660F771F881F36
:102A6000DAF7880F9695879597F90895990F0008DA
:102A7000550FAA0BE0E8FEEF16161706E807F90750
:102A8000C0F012161306E407F50798F0621B730BEB
:102A9000840B950B39F40A2661F0232B242B252B6C
:102AA00021F408950A2609F4A140A6958FEF811D0F
:102AB000811D089597F99F6780E870E060E00895B0
:102AC0009FEF80EC089500240A9416161706180646
:102AD0000906089500240A94121613061406050622
:102AE0000895092E0394000C11F4882352F0BB0FB3
:102AF00040F4BF2B11F460FF04C06F5F7F4F8F4F16
:102B00009F4F089557FD9058440F551F59F05F3F50
:102B100071F04795880F97FB991F61F09F3F79F0FF
:102B200087950895121613061406551FF2CF469581
:102B3000F1DF08C0161617061806991FF1CF869503
:102B40007105610508940895E894BB2766277727E7
:102B5000CB0197F908958ADF08F48FEF08950BD021
:102B6000C0CFB1DF28F0B6DF18F0952309F0A2CF6F
:102B7000A7CF1124EACFC6DFA0F3959FD1F3950F1D
:102B800050E0551F629FF001729FBB27F00DB11DF1
:102B9000639FAA27F00DB11DAA1F649F6627B00D81
:102BA000A11D661F829F2227B00DA11D621F739F6A
:102BB000B00DA11D621F839FA00D611D221F749F78
:102BC0003327A00D611D231F849F600D211D822FBF
:102BD000762F6A2F11249F5750408AF0E1F0882306
:102BE0004AF0EE0FFF1FBB1F661F771F881F915013
:102BF0005040A9F79E3F510570F05CCFA6CF5F3FD4
:102C0000ECF3983EDCF3869577956795B795F79545
:102C1000E7959F5FC1F7FE2B880F911D96958795CD
:102C200097F90895629FD001739FF001829FE00D94
:102C3000F11D649FE00DF11D929FF00D839FF00D3B
:102C4000749FF00D659FF00D9927729FB00DE11DE7
:102C5000F91F639FB00DE11DF91FBD01CF011124C4
:102C6000089597FB092E07260AD077FD04D049D096
:102C700006D000201AF4709561957F4F0895F6F7FD
:102C8000909581959F4F0895A1E21A2EAA1BBB1B18
:102C9000FD010DC0AA1FBB1FEE1FFF1FA217B30728
:102CA000E407F50720F0A21BB30BE40BF50B661F3E
:102CB000771F881F991F1A9469F760957095809502
:102CC00090959B01AC01BD01CF01089597FB092EA2
:102CD00005260ED057FD04D0D7DF0AD0001C38F4EB
:102CE00050954095309521953F4F4F4F5F4F089538
:102CF000F6F790958095709561957F4F8F4F9F4F18
:102D00000895AA1BBB1B51E107C0AA1FBB1FA61732
:102D1000B70710F0A61BB70B881F991F5A95A9F784
:102D200080959095BC01CD010895EE0FFF1F059091
:0A2D3000F491E02D0994F894FFCF10
:102D3A00202D20002020000A5769694368756B20FE
:102D4A00547261696E20436F6E74726F6C6C657237
:102D5A00205665722E350A00202073706565644C12
:102D6A00696D6974203D200020207374616C6C5376
:102D7A0070656564203D20002020726F6C6C44727F
:102D8A006167203D200020206272616B6544726198
:102D9A0067203D20000A4348554B207265616473E1
:102DAA003A2020616363783A200020206A6F79789C
:102DBA003A20002020636275743A200020207A624B
:102DCA0075743A20000A57616974696E6720666FE4
:102DDA0072206A6F79737469636B206D6F76656DA3
:102DEA00656E74202E202E202E00544F4F20444111
:102DFA00524B20464F522053454E534F5253007365
:102E0A00707572097761726E0974726970000900CF
:102E1A007265636569766520276127207369676E25
:102E2A00616C007265636569766564202762272094
:102E3A007369676E616C004348554B205245534590
:102E4A005421004F4E205448524F5753007377690C
:102E5A0074636820646972656374696F6E20626165
:102E6A00636B77617264007377697463682064695D
:102E7A0072656374696F6E20666F7277617264003F
:102E8A00454F54205761726E206F6E2073707572B1
:102E9A002000454F542054524950206F6E207370C1
:102EAA0075720020206A6F79793A2000454F545F85
:102EBA007761726E3A20002020454F545F74726920
:102ECA00703A20002020747261696E4469723A2057
:102EDA0000202073706565645365743A20002020D1
:102EEA0063757253706565643A200020206D656DC4
:102EFA0053706565643A20002E00200052040000D9
:102F0A0001010064000A001E0014006400640050FD
:102F1A000001000E000F0001000100010000000086
:102F2A0000000001000500060009000A0002001066
:102F3A000001002C01C201010001002C01900102D4
:102F4A00000000F000B400020001002C0190010210
:102F5A000000000100000000000000000000000066
:102F6A000006000400050003000D00020001010034
:0A2F7A00000000AB11F81110120066
:00000001FF
